:10080000900800201534000011340000113400005D
:1008100000000000000000000000000000000000D8
:100820000000000000000000000000001134000083
:10083000000000000000000011340000113400002E
:100840001134000011340000113400001134000094
:10085000012B0000113400001134000000000000E2
:1008600011340000D12A0000E12A0000F12A000022
:1008700015250000512A0000612A00007D170000A4
:1008800011340000113400001134000010B5064C82
:100890002378002B07D1054B002B02D0044800E041
:1008A00000BF0123237010BD700000200000000075
:1008B000F83B0000084B10B5002B03D0074908484F
:1008C00000E000BF07480368002B00D110BD064BB5
:1008D000002BFBD09847F9E70000000074000020CF
:1008E000F83B0000F83B00000000000070B5050078
:1008F000046820000E4B98471F2318401E3B83407E
:1009000080220C498B502A68D369002BFCD18F338D
:100910002375237623680222934323602A68D369D0
:10092000002BFCD1236801221343236070BDC04615
:10093000B12A000000E100E0F0B58BB005000C002A
:10094000160029600B681C209B0701D50BB0F0BD79
:100950000B681738DB07F9D408006F4B98476F4ACC
:10096000116A871C0123BB400B43136209A924278A
:10097000F35D0B700E30C3B201931800684B9847BB
:100980000198684B9847F05D0021674B9847337892
:10099000012B3FD03378002B03D123680822134367
:1009A00023602B000C3329002831002204C38B4222
:1009B000FCD10023EB62AB620024AB862B8636337E
:1009C000EC540133EC540133EC54353B6B722C7115
:1009D0002868514B984707005449554B9847BF002A
:1009E000544BFD502F6804AB80221A705C707F3A24
:1009F0009A70DC703378002B02D1002204AB9A701D
:100A0000B36A0593F36A0693336B0793736B08938A
:100A100000240BE023680C2213432360BAE738005C
:100A2000454B98470AE00134042C10D0E1B2A300F2
:100A300002AA0C201218D0580028F0D0431CF2D083
:100A400004A90870000CC0B23C4B9847EBE7337820
:100A50006B71337CAB71B37CEB71337D2B720022F5
:100A600002ABDA803378012B12D03378002B26D1F9
:100A7000B069B28B7B6AF17F0904B47F21431943CB
:100A800079622023F35C002B1BD040231A4318E02B
:100A90002868214B98470E30C0B2294B9847010077
:100AA00002AB9A1DB069274B984703001720002B13
:100AB00000D04BE702AB06331B783B73D5E700222F
:100AC00000207368B1680B43F1680B430343317C2A
:100AD0000A43717C002903D11B498978890701D514
:100AE00080210B43B17C002902D0802189020A4376
:100AF000F17C002902D0802189000A43317D002940
:100B000002D0802189010A4339680B433B607B682E
:100B10001A437A60002019E7F5190000000400402C
:100B200075320000E9310000E9180000AD0B00004B
:100B3000752A0000EC030020351900006D33000019
:100B400091320000C118000000200041931C9B005E
:100B5000C31859603621012393401A00435C1343A4
:100B60004354704730B51724002B01D1200030BD0D
:100B7000C5790534002DF9D01C34055D333C052DB5
:100B8000F4D0838603868262C16205223823C25470
:100B9000363B437203689A7580321A764279002494
:100BA000002AE3D102321A769A75DFE7F8B58000A1
:100BB000594BC5582E683723EF5C3622AA5C174084
:100BC000337EB47D1C40E30714D56B79002B11D123
:100BD0006B7A002B0ED0EB6A1A780133EB62B262AB
:100BE000AB8E013B9BB2AB86AB8E9BB2002B01D18F
:100BF00001333375630705D5738B5B071ED5B36A65
:100C000004237383A3070BD56B79002B12D1012228
:100C1000424B1A706B7A022B00D167E002233376C5
:100C2000230707D56B79002B04D10833337533764E
:100C3000BB0662D464B2002C63DBF8BDB36ADBB2DE
:100C4000AA6A1370A96A4B1CAB622B8E013B9BB244
:100C50002B86334A13780133DBB21370012B1BD080
:100C60002B8E9BB2002BCDD12D4A13702D4A1370C1
:100C70002D4A13702D4A13703822AB540433337548
:100C80006B7A022B2BD06B7A002BBBD1BB07B9D56B
:100C900028002B699847B5E70122224B1A700023E0
:100CA000214A1370214A13700B78DBB2CA2B0DD086
:100CB0000B78DBB2CC2B09D00B78DBB28C2BCFD1ED
:100CC0007B3BEA6A1370EA6A5370C9E7AB8E09335B
:100CD0009BB2AB862B8E09339BB22B86C0E77B077A
:100CE00000D48FE728006B6998478BE77B0700D417
:100CF00094E728006B69984790E728002B6A98478B
:100D000098E78023337533767B0600D495E76B6ACA
:100D10002800984791E7C046EC030020FB00002024
:100D20008C000020FE000020F9000020FA000020C6
:100D300010B50E4B1B78002B03D00D4B1B78002BEE
:100D400000D110BD00230B4A1370094A1370074AE3
:100D50001370094C2000094B9847094B984704230E
:100D6000084A09492000094CA047EAE7FE00002094
:100D7000F9000020FA0000200C010020ED0800001E
:100D8000B5110000180400202C040020650B0000A1
:100D9000F0B5C64600B584B0914B88221A70223255
:100DA0005A7011329A701132DA708E4B98478E4B0E
:100DB0001B78002B03D104B004BC9046F0BD8B4BD4
:100DC00098478B4A13781278D2B23F218B43C02BBD
:100DD000F1D1813B1A40D3B20B2BECD89200854B5A
:100DE0009B589F46824B5B78DBB2834A12789A42CB
:100DF000E1D07F4C6178C9B23120804B984762784E
:100E00007D4B1A70D7E77A4B5B78DBB27A4A52781F
:100E10009A42D0D0764C6178C9B23220774B98474D
:100E20006278754B5A70C6E7714B5B78DBB2744AD7
:100E300012789A4206D16E4B9B78DBB2704A527898
:100E40009A4211D06A4C6178C9B2A278D2B2E378E2
:100E5000DBB231206B4DA8476278694B1A70A278DB
:100E60005A70E2789A70A6E7614BDB78DBB2644A8D
:100E700092789A42E6D19EE75D4B5B78DBB2604A9E
:100E8000D2789A4206D15A4B9B78DBB25C4A1279EF
:100E90009A4211D0564C6178C9B2A278D2B2E378A6
:100EA000DBB23220574DA8476278554BDA70A278F2
:100EB0001A71E2785A717EE74D4BDB78DBB2504A0B
:100EC00052799A42E6D176E7494B5B78DBB24E4ADB
:100ED00012789A4200D16EE7454C6178C9B2312050
:100EE0004A4B98476278484B1A7064E7404B5978F0
:100EF000C9B23220454B98475DE73D4B5B78DBB28A
:100F0000414A92789A4200D155E7394C6178C9B28A
:100F100033203E4B984762783B4B9A704BE7344BFB
:100F20005B78DBB2384AD2789A4200D143E7304C42
:100F30006178C9B23420354B98476278324BDA7009
:100F400039E72B4CE078C0B22179C9B26279D2B2CC
:100F5000A379DBB29846E579267A6778A37803937C
:100F60000297019600954346294DA847607AC0B282
:100F7000A17AC9B2E27AD2B2237BDBB2254DA8476F
:100F800062781D4B1A70A2785A700323184C1C48C3
:100F9000E15CDA1E81540133092BF9D1144A517AEC
:100FA000194B1970917A5970D17A9970127BDA7055
:100FB00001E7194B9847194B98470F4A00231370C4
:100FC00053700F4A137053709370D3701371537131
:100FD0000D4BFF221A705A709A70DA70EBE6C04619
:100FE0006C040020310D0000FF000020C51000003F
:100FF00048040020F839000090000020ED1A00009D
:1010000094000020951A00009C000020BD1E0000E6
:101010002D1A0000A91D0000351B0000A91E0000AC
:1010200070B58EB0002401940294C0239B030393F7
:101030006B461C745C7401259D74DD741C7524233F
:101040006A46D4540C22002106A8144B98476B46DC
:101050001C7020236A46D5540694114B0A93114BF9
:101060000B93114B0C93114B0D93114E1149300002
:10107000114B984734682000104B98471F231840A5
:1010800085400F4B1D603268D369002BFCD123686B
:101090000222134323600EB070BDC0460339000026
:1010A00002001600020017000200180002001900DA
:1010B0000C010020000C004239090000B12A000098
:1010C00000E100E010B52C4B1B882C4A12889BB223
:1010D000934218D0294B1B889BB2F52252009342B1
:1010E00004D8254B1B889BB2934214D90023234A72
:1010F0001380214A1380204B1B88204A12889BB200
:10110000934231D010BD00231D4A13701A4A138038
:101110001A4A1380EFE7184B1B889BB2194AD35C1D
:10112000DBB20022CA2B0FD01349164C16480B888D
:101130009BB2E35CDBB283540B8801339BB20B8020
:101140000132042AF3D1D6E70B490E4C0E480B8826
:101150009BB2E35CDBB283540B8801339BB20B8000
:1011600001320D2AF3D1C6E70023054A1370024A63
:101170001380024A1380C5E7A2000020A0000020CF
:10118000FF000020480100204804002010B5064C54
:10119000022206492000064B98473722A35C04210F
:1011A0000B43A35410BDC0460C01002001120000E7
:1011B0004D0B0000F0B583B010226B46DA710A4B7C
:1011C00098470A4B98470A4E0A4D0B4C04233200AD
:1011D00029002000094FB8476B46D87107331B78A8
:1011E000002BF3D103B0F0BD211000008D110000E1
:1011F000180400202C0400200C010020650B0000C6
:1012000030B583B00122254B1A700023244A137095
:101210006A46D371234B1B78002B1FD1224B1B78BE
:10122000DBB20022CA2B29D020481F4D204C038856
:101230009BB2A95CC9B2E154038801339BB203801D
:101240000132042AF3D100221A4B1A700423164AE1
:1012500019491A481A4CA04703B030BD0022114B5F
:101260001A70164C2000174B9847174B98470423C9
:101270000D4A11492000124CA047EDE70B480A4DDA
:101280000B4C03889BB2A95CC9B2E15403880133BB
:101290009BB2038001320D2AF3D1D4E7FF00002076
:1012A000FA000020FB00002018040020A00000200D
:1012B000480100200B0000202C0400200C0100201D
:1012C000650B0000ED080000B511000070B50020AE
:1012D000084B98470500084CFA218900A047074BA6
:1012E000186007492800A047064B18600522064BE6
:1012F0001A6070BD5D310000A935000000000020BB
:1013000040420F000400002010E000E010B5002271
:101310000023027042700021428001710376026254
:10132000C26182600373C0246401C4810374437486
:101330008374C37403752A24035543758375063C6F
:101340000355C2840285C1752B23C1540133C15496
:1013500010BD0000F0B5D6464F464646C0B596B023
:10136000070016000160C64A106A80235B00034331
:1013700013620B780520DB0705D516B01CBC904620
:101380009946A246F0BD0B7817309B07F5D47378C9
:101390003B71002B04D1BB4A136C04210B43136433
:1013A0000023BB60FB603B61BB76FB763B833B77F6
:1013B000B54B1F602A23F35C002B05D1337D002B36
:1013C00002D101337B7701E000237B773B689846AD
:1013D00033786A46137069461320AC4B9847132044
:1013E000AB4B98472C23F25C002A54D0013BF55CB0
:1013F000337BEB18DBB2D118C9B28B4221D2521920
:10140000D3B29946A34B9A4603E00135EDB24D4560
:1014100017D00F242C40337BE41850229E4902A899
:10142000D047092CF1D8A40002ABE05801A9002351
:101430004B70CB708B7001330B70C0B2974B9847D9
:10144000E3E7F4895022944902A8924B9847092C6B
:1014500013D9737D9B00DBB242461370B37DDB0171
:1014600072781343DBB2424653703379342B00D980
:101470007BE19B008A4AD3589F46A40002ABE05808
:1014800001A900234B70CB708B7001330B70C0B27D
:10149000824B9847DDE7347B50227F4902A87D4B81
:1014A0009847092C15D9F48950227B4902A8794B19
:1014B0009847092CCDD8A40002ABE05801A900231D
:1014C0004B70CB708B7001330B70C0B2734B98476D
:1014D000BFE7A40002ABE05801A900234B70CB701A
:1014E0008B7001330B70C0B26C4B9847DBE7042361
:1014F000102402211AE0717C337C102416E00623AC
:101500001024012112E00823102400210EE0002302
:10151000302400210AE000232024002106E00023DB
:101520000024002102E0022310240121090170227D
:101530000A40134342469370F37D17203F2B00D996
:101540001BE7D3703A68537E5BB2002BFBDBF37C66
:10155000728813432422B25CD2001343327D92007E
:101560001343B27C52001343234342469380337E9D
:10157000002B20D0102C00D1D9E000D898E0202CEE
:1015800000D1B6E0302C16D1F27C002A0AD0F269E4
:1015900080321720FF2A00D9EFE6326A8032FF2A14
:1015A00000D9EAE61720F269FF2A00DDE5E6326A93
:1015B000FF2A00DDE1E639684A7E52B2002AFBDBF1
:1015C000424613723A68537E5BB2002BFBDBB38B4F
:1015D000424693833A68537E5BB2002BFBDB338C2D
:1015E000424613842C23F35C002B05D0013BDBB275
:1015F00017200F2B00D9C0E62B22B15C17200F2932
:1016000000D9BAE63868427E52B2002AFBDBF28982
:10161000307B0243B068024309050A431B041343AD
:10162000424613612A23F35C13750F239375153318
:10163000F35C002B12D0F38C1A4A1720934200D986
:101640009BE642469384328D80231B01D3181549B3
:101650009BB28B4200D990E64346DA84124B1B685A
:101660005B01E022D2001340104A51684901126820
:10167000D20E0A43D2B213434246138500207CE6C1
:1016800000040040000800403C03002075320000C8
:10169000E9310000F1380000FC3A00006D33000031
:1016A000283A0000FF0F00002460800020608000C6
:1016B000002C00D07FE7F27C002A0FD0F269802155
:1016C00009018C4662442A4917208A4200D954E60F
:1016D000326A624426498A4200D94EE6244A1720DB
:1016E000F169914200DD48E6316A914200DD44E64D
:1016F00061E7F27C002A0FD0F269802189008C46D4
:1017000062441C4917208A4200D936E6326A624494
:1017100018498A4200D930E6164A1720F1699142E9
:1017200000DD2AE6316A914200DD26E643E7F27CDD
:10173000002A0FD0F269802109028C4662440E49CA
:1017400017208A4200D918E6326A62440A498A425E
:1017500000D912E6084A1720F169914200DD0CE633
:10176000316A914200DD08E625E7172005E6C0460C
:10177000FF0F0000FF030000FFFF000070B52E4BBD
:101780001C6823681D7EEDB2EA0705D5E27ED2070C
:1017900002D5A27ED20716D46B0708D5042322688F
:1017A0001376E37E9B0702D5A37E9B073CD4AB0751
:1017B00008D5022322681376E37E5B0702D5A37E59
:1017C0005B0735D470BD01221A762268537E5BB266
:1017D000002BFBDB61698B1C6361538B9BB20B801D
:1017E000238B013B9BB22383002B11D0637F002B03
:1017F000D2D02268537E5BB2002BFBDB137B02212D
:101800000B4313732268537E5BB2002BFBDBC3E7F1
:10181000237F052BC0D100232377013322689375E2
:101820002000A3689847B7E72000E3689847BEE721
:10183000236920009847C5E73C030020044A137839
:1018400002210B43137053785BB2002BFBDB704714
:101850000018004000B583B0124A936940210B4341
:10186000936101A900230B7005200F4B98470520B9
:101870000E4B98470E4A137801210B43137053788F
:101880005BB2002BFBDB0B4B19004031002204C381
:101890009942FCD11022084B1A60084B984703B0BC
:1018A00000BDC0460004004075320000E931000070
:1018B000001800404003002000E100E03D18000057
:1018C00010B5490840230024814202D2180010BDFF
:1018D0001C00091A631C9BB28842F9D94023FF2CD3
:1018E000F4D814800023F1E710B582B004000E4B49
:1018F0001B78002B07D0002905D10B4B5B78834266
:1019000010D01D200CE001A90C700D20074B98474A
:101910000D20074B9847044B5C7001221A70002081
:1019200002B010BD0020FBE7A400002075320000CB
:10193000E9310000204B984217D0204B984224D028
:101940001F4B984201D000207047012907D0002981
:101950002BD0022905D0032905D00020F4E719482F
:10196000F2E71948F0E71948EEE7012907D0002906
:101970001DD0022905D0032905D00020E4E7144832
:10198000E2E71448E0E71448DEE7012907D0002920
:101990000FD0022905D0032905D00020D4E70F4835
:1019A000D2E70F48D0E70F48CEE70F48CCE70F4803
:1019B000CAE70F48C8E7C046000C004200100042CA
:1019C00000080042030005000300060003000700B2
:1019D0000200170003001E0003001F000300170091
:1019E00003001000030019000300040002001600A9
:1019F0000300160030B585B001AA0B4B32CB32C2C2
:101A00000300019A82420CD0029A824207D0002041
:101A1000039A9A4201D005B030BD023002E00120A5
:101A200000E00020C0B2F6E74C3B0000F8B59C4651
:101A300006AB1B7807AC277808AC267809AC25786C
:101A4000C043C0B20F4C2070C943C9B26170D143CA
:101A5000C9B2A1706246D243D2B2E270DB43DBB2BC
:101A60002371FB43DBB26371F343DBB2A371EB433E
:101A7000DBB2E371044B9847044B98470122044BB7
:101A80001A70F8BD80040020392D00007D2B000065
:101A90000001002010B5312809D0322812D00F4B98
:101AA00098470F4B984701220E4B1A7010BDC9433F
:101AB000C9B20D480170D243D2B24270DB43DBB2EF
:101AC0008370ECE7C943C9B20748C170D243D2B2B0
:101AD0000271DB43DBB24371E1E7C046392D000000
:101AE0007D2B0000000100208004002010B5FF299C
:101AF0000BD031280BD032280ED00A4B98470A4B16
:101B000098470122094B1A7010BD0139F1E7C9430A
:101B1000C9B2074B9971F0E7C943C9B2044BD971F7
:101B2000EBE7C046392D00007D2B000000010020AE
:101B30008004002010B5094BFF221A705A709A7069
:101B4000DA701A715A719A71DA71054B9847054B20
:101B500098470122044B1A7010BDC0468004002033
:101B6000392D00007D2B000000010020F8B5002475
:101B7000054F064E064DE05DB047C0B22855013412
:101B8000042CF8D1F8BDC046583B0000211C0000D1
:101B90002C04002010B58CB068461A4B98470220E0
:101BA000194B9847194B186001236A4653708022DD
:101BB000920069464A80FB3AFF3A0A73C0225201FA
:101BC000CA8130220A716A468B74114C1149200077
:101BD000114B98472268537E5BB2002BFBDB8021C0
:101BE00009020E4B19600F239375137613780221A7
:101BF0000B431370064B1A68537E5BB2002BFBDB62
:101C00000CB010BD0D130000DD380000A80000204E
:101C100080030020002000425513000000E100E096
:101C200030B52D4B19684B7E5BB2002BFBDB0B698B
:101C30001F229343184308614B7E5BB2002BFBDBF2
:101C40004B7E5BB2002BFBDB0B7B022213430B733F
:101C50004B7E5BB2002BFBDB01200425022401E05C
:101C600010420AD10B7EDBB202001A401D4200D0A6
:101C700022431C42F4D02A43F2E70A7ED2B2012367
:101C80001340500701D502200343920701D50422D7
:101C90001343DB0703D4114B1B68188830BD4B7E00
:101CA0005BB2002BFBDB0D4B1B684A8B1A800A4B87
:101CB000196801230B760A7ED2B21340500701D572
:101CC00002200343920701D5042213435B07E2D5A8
:101CD00002230B76DFE7C04680030020A800002027
:101CE00010B5014B984710BD951B0000054B1A68B5
:101CF000022193681942FCD1136802210B4313603F
:101D00007047C046A003002030B5ABB01A4D01ACFF
:101D100029002000194B98470223E372184A626099
:101D20002376002323756375A375E375E3610122B0
:101D3000982162549439A1651249A16723629921BF
:101D400062549439E1651049E16763629A216254F3
:101D5000943921660D487A316050A3629B33E25476
:101D6000943B63660A4A7D33E25022002900094809
:101D7000094B98472BB030BD00140042F51F0000FE
:101D8000409C000005000400050005000500060059
:101D900005000700A00300203121000010B5014B11
:101DA000984710BD091D0000F8B507000E0015008A
:101DB0001C00364B1B78834210D0FF284ED0DC200D
:101DC00000017843FE21324B9847A023DB00C21864
:101DD00000213048304B98472C4B1F702F4B1B78FD
:101DE000B34210D0FF2E3FD0DC2000017043FE2113
:101DF000274B9847A023DB00C21801212548264B1A
:101E00009847264B1E70264B1B78AB4210D0FF2DF7
:101E100030D0DC2000016843FE211D4B9847A023F1
:101E2000DB00C21802211B481B4B98471C4B1D703E
:101E30001C4B1B78A34210D0FF2C21D0DC200001CA
:101E40006043FE21124B9847A023DB00C2180321F8
:101E50001048114B9847134B1C70F8BD002200210D
:101E60000C480D4B9847B7E70022012109480A4B5F
:101E70009847C6E7002202210648074B9847D5E756
:101E8000002203210348044B9847E4E7AC000020FC
:101E9000BD360000A0030020B9240000AD000020E2
:101EA000AE000020AF00002010B5FF23FF22FF216D
:101EB000FF20014CA04710BDA91D000010B532281D
:101EC0002CD013D933283FD0342820D1FF2951D02A
:101ED000DC2000014843FE21294B9847A023DB006A
:101EE000C21803212748284B984710E031280ED10B
:101EF000FF290DD0DC2000014843FE21204B9847EC
:101F0000A023DB00C21800211E481F4B984710BDBC
:101F1000002200211B481C4B9847F8E7FF290DD0F1
:101F2000DC2000014843FE21154B9847A023DB002D
:101F3000C21801211348144B9847E8E700220121F9
:101F40001048114B9847E2E7FF290DD0DC20000133
:101F50004843FE210A4B9847A023DB00C218022108
:101F60000848094B9847D2E7002202210548064B52
:101F70009847CCE7002203210248034B9847C6E765
:101F8000BD360000A0030020B924000000207047E7
:101F900030B504001720032900D930BD124DAA42E4
:101FA000FBD82068002B12D0802424050F4B1C6026
:101FB000802424038C4083681C42FCD180242405A7
:101FC0000B4B1C601C3189000A500020E5E780247F
:101FD00064008C4083681C42FCD110318900411898
:101FE0004A600020D9E7C046FFFFFF0018440041C7
:101FF00014440041002303604C4A42608372C37260
:10200000037343720372C3610362436283620375A5
:1020100043758375C3750376437603744374837481
:10202000C3742C228354013283540132835401320D
:102030008354013283540132835401328354013278
:102040008354013283540132835401328354013268
:102050008354013283540132835401328354013258
:102060008354013283540132835401328354013248
:102070008354013283540132835401328354013238
:102080008354013283540132835401328354013228
:102090008354013283540132835401328354013218
:1020A0008354013283540132835401328354013208
:1020B00083540132835401328354013283540132F8
:1020C00083540132835401328354013283540132E8
:1020D0008354413283548365836701328354C365DB
:1020E000C3670132835403661A3A83501B32835408
:1020F0004366173A8350183283548366143A8350E8
:1021000015328354C366113A8350123283540367E5
:102110000E3A83500F32835443670B3A83500121A8
:102120000C328154013283547047C046FFFFFF00D8
:10213000F0B5DE4657464E464546E0B58DB0060042
:102140000C0015000800CD4B98470300CC490A6AE3
:10215000202002430A6222680438920706D50DB097
:102160003CBC90469946A246AB46F0BD226801278A
:102170001740F4D1C34A053829689142EFD86968FD
:102180009142ECD8E969914200D98BE1296A9142E8
:1021900000D989E1696A914200D987E1A96A91422F
:1021A00000D985E12A7C013A504250410206019251
:1021B0006A7C012A31D0AA7C012A34D0EA7C012A27
:1021C00037D0A122AA5C002A04D0802212010199F2
:1021D000114301912A7A511E8A41920003926A7A30
:1021E000012A2CD03522AA5C032A00D962E12C21D5
:1021F000695C0F2900D95DE1287B0490E87A05909D
:102200002D208246AA4400200297844606960E009E
:10221000A0465446A946079347E0802292040199BC
:1022200011430191C7E78022D20401991143019122
:10223000C4E780221205019911430191C1E7039976
:1022400011430391CEE79202C0252D012A4032436B
:102250000D7903262E40324355462A434E797601A6
:10226000602535402A438D792D02C026B6003540C1
:102270002A43CD792D03E026F60135402A43104349
:1022800003431F4308AB624608201B189F50042AD3
:1022900028D08A7C032A00D90CE14E7A0A34042320
:1022A0009A46D4440F2E00D904E13606F0231B05CC
:1022B0001E40210025782D04FF231B041D40AA4643
:1022C00063788020002B00D102988F780823002F9C
:1022D00000D1029BCF78BB4610275D46002DB2D1BE
:1022E000029FB0E7069E44464D46079B4846503045
:1022F00049464131002280277F02BC460127B9466A
:102300000227FF37BA461F001300A0463C0007E033
:10231000574697403B43013201300231082A0ED024
:102320000778002F02D0674697403B430F78002F75
:10233000F1D0022FECD04F4697403B43EBE7220011
:102340004446984613006A7E120130211140287ECF
:102350000722024011430022802040020F0002E0C9
:102360000132042A07D0A918097D0029F8D00100FC
:1023700091400F43F4E7B946321D3000343000215C
:1023800002C29042FCD100227263B2639B003E4ABB
:102390009E503460A023EA5C643BF25409A9AB7AF6
:1023A0000B701120394B98471120394B98472F005B
:1023B00098372E00583678239A46AA44773B9B4696
:1023C000230054469A4603E001370436B44214D041
:1023D0003B78002BF8D008AB5A469A70002308AA25
:1023E000D37013002022B21812781A705A465A700D
:1023F00030781900274B9847E6E75446049B1B03A7
:10240000059A12021343019A134323600422A3681E
:102410001A42FCD1FF2323710422A3681A42FCD183
:102420006B461B7B63710A9BE3600B9B23614346F6
:10243000A361194AA3681342FCD14B46E3631022FF
:10244000A3681A42FCD12B686363144AA368134241
:10245000FCD16B6823641C350021114802008A40BE
:10246000A3681A42FCD104CD0B0010339B00E31883
:102470005A6001310429F1D1002070E68D1F00005F
:1024800000040040FFFFFF00E00300207532000061
:10249000E93100006D3300004000020080000400BC
:1024A0000001080017205AE6172058E6172056E6C4
:1024B000172054E6172052E610B53C23C35C014CAC
:1024C000A04710BD911F0000F0B5C64600B58000C2
:1024D0000E4BC7583B68DE6ABB6B7A6B13401E40DD
:1024E00000240B4B984602E00434302C0AD04346BB
:1024F000E5583542F8D03B195B68380098473B688F
:10250000DD62F1E704BC9046F0BDC046E003002068
:102510005C3B000010B50020014B984710BDC04641
:10252000C9240000064B984208D0064A0023904276
:1025300001D0180070470133DBB2FAE70023FBE754
:1025400000180042001C0042F0B585B004000D00E8
:1025500016000800824B9847070003AB12221A703E
:102560005A7002AB2E321A8040325A800023A36088
:10257000E36023616361237663768200794BD450F4
:102580002560B378082B06D023712B880520DB0744
:1025900005D505B0F0BD1720FA07FAD4F4E7EB7BB8
:1025A0001730DB06F5D42B889B07F2D4337C002B45
:1025B00000D07AE0337F002B00D082E06A49086ABD
:1025C0007A0002ABD35A03430B62B378082B00D1D5
:1025D00087E033786A46137003ABDF5D69463800E5
:1025E000624B98473800624B98473189B3880B4358
:1025F000B178B279114319437378002B02D080234C
:102600001B0119432268D37B5BB2002BFBDB2980C3
:10261000717B4B1E99418900B37B002B01D00123B4
:1026200019432268D37B5BB2002BFBDBFF232B71AA
:10263000002905D02268D37B5BB2002BFBDB6971DC
:10264000B17AF37A002B01D010231943337B002B8E
:1026500001D0202319432268D37B5BB2002BFBDB24
:10266000A9712268D37B5BB2002BFBDB2379042B9F
:102670003FD0082B5ED01720002B00D089E7D37BFA
:102680005BB2002BFBDB338D2B822268D37B5BB2EA
:10269000002BFBDB738D2B832268D37B5BB2002B7B
:1026A000FBDBB38D6B83002073E701A901238B70E3
:1026B0000022CA70327E0A704B70307D2D4B9847D5
:1026C00078E701A901238B700022CA702432B21866
:1026D00012780A704B701F33F3181878254B9847FF
:1026E0006CE7086A7A1C520002ABD35A03430B62B0
:1026F0006FE7D37B5BB2002BFBDB2823F35C2B74EF
:102700002268D37B5BB2002BFBDB2923F35C2B75A8
:102710002268D37B5BB2002BFBDB2A23F35C2B7696
:102720002268D37B5BB2002BFBDB2B23F35C6B7645
:1027300000202EE7D37B5BB2002BFBDBB36A2B615F
:102740002268D37B5BB2002BFBDBF36AAB612268B0
:10275000D37B5BB2002BFBDB336BEB61002018E714
:1027600025250000E403002000040040753200002D
:10277000E93100006D330000931C9B001950022AC0
:1027800009D0032A0CD0012393401A00037E13437F
:10279000037600207047037E102213430376F8E788
:1027A000037E202213430376F3E70000F8B5DE46EC
:1027B00057464E464546E0B580008C4BC4582368CA
:1027C0009B7B227E617E11401940CB0600D486E0BF
:1027D000874B1B78002B7CD1864B1B78864A12785E
:1027E000DBB2934211D085480378DBB25A1CD2B2D7
:1027F0000270834AD25CD2B201239340814A1360B3
:102800007C4A13780133DBB213707A4B1B787A4A17
:102810001278DBB293425FD2764D2B78013B7A4837
:10282000C25CD2B2794B1A702B78DBB2C35CDBB2DC
:10283000774803709A4236D12878C0B26E4B1B7825
:10284000013B98423CDC6D4E6D4B984628006E4D26
:102850006E4B9C466E4F8246674B99463378DBB28F
:102860005A1CD2B232704246D25CD2B2012393409B
:10287000644A13600378DBB2EA5CD2B263461A7032
:1028800003780133DBB20370EB5CDBB23B709A423E
:1028900009D152461278D2B293464A461278013A8A
:1028A0009345DBDD1A00FF2B0CD05A480278002A32
:1028B000FCD1594A1370554B1A78584B1A700BE0DB
:1028C0001300F0E753480378002BFCD1534B1A70E8
:1028D00002E00022464B1A70102322689373CB0744
:1028E00074D54F4A13780133DBB213701378DBB21F
:1028F000022B05D901224B4B1A700022484B1A704B
:10290000494A4A4B1A604A4B1B78002B44D0494B2A
:102910001B78002B0FD1484B1B78002B39D100229C
:10292000354B1A700023454A904633489446364F3B
:10293000434E334D22E000223E4B1A702068414B3B
:102940009847414B1B5C1F221A40012393403F4A8A
:102950001360637E1022134363761023226853733F
:10296000013322689373D6E76146895CC9B2B954D2
:10297000B15CC9B2A9540133082B0AD01A004146F0
:10298000C95CC9B2FF29EFD001780131C9B2017029
:10299000EAE70022264B1A700023164A1370174AE2
:1029A0001370194B1978C9B2FF2915D0194A137839
:1029B000002BFCD1184B1970164A1378002BFCD150
:1029C0000022164B1A70236801329A733CBC904661
:1029D0009946A246AB46F8BD0122164B1A700F323B
:1029E00023681A73637E93436376E5E7E40300206C
:1029F00009000020B800002008000020C4000020CA
:102A0000BC00002018440041B0000020BA000020A3
:102A1000B90000200F180042181800421018004298
:102A2000FA000020F9000020008303C8144400418C
:102A300000010020BB000020F8000020400400201E
:102A400064040020252500008C3B000000E100E02C
:102A500010B50020014B984710BDC046AD270000BF
:102A600010B50120014B984710BDC046AD270000AE
:102A70007047000030B50A4B1B78002B0CD1094C75
:102A8000094D2560094B00221A6065605A60A560F7
:102A90009A600132024B1A708000024BC15030BD67
:102AA000C5000020C8000020712A0000EC030020AF
:102AB00010B582B001AC0923237001336370013378
:102AC000A370024B9847205602B010BDF5190000C4
:102AD00010B5024B1B680020984710BDC8000020AD
:102AE00010B5024B5B680120984710BDC80000205C
:102AF00010B5024B9B680220984710BDC80000200B
:102B000070B50022104B1A70002310491F25104E7B
:102B10000D4C0AE00D4908E023780133DBB2237045
:102B20000F2B10D800211F2BF4D9280018400122A8
:102B3000824008691042EFD00A619B009B59002B2C
:102B4000EAD09847E8E770BDF8030020001800407D
:102B50004003002000B583B001AB80221A700A78D0
:102B60005A704A789A708A78DA701900014B98473F
:102B700003B000BD6D33000070477047F0B5C64626
:102B800000B584B00023234C02A82349E25CC25460
:102B9000CA5C6D46EA540133082BF7D1013B9C46D1
:102BA00002AD1AE00133DBB21A00BB420EDA69460D
:102BB000885C511C6C46645CA042F3D96E46B454E8
:102BC0007054A85C6C5CAC546854EBE701235B4226
:102BD0009846C4446346002B05D067460022002374
:102BE000002FE4DCF2E701220C4B1A70002302AC48
:102BF0000B480C491A5DC2546A469A5CCA540133A8
:102C0000082BF7D10022054B1A7004B004BC904683
:102C1000F0BDC0465C04002080040020F8000020C5
:102C2000640400204004002010B58EB001AA0023E7
:102C30000021137093711381002050709172D17232
:102C4000117391735173117453619361117713620E
:102C50005362138553859385C023DB00938004233F
:102C60009370FF212533D154074C08492000084BAD
:102C700098472268D37B5BB2002BFBDB13880221D1
:102C80000B4313800EB010BDFC030020001800425F
:102C90004925000010B5012202490348034B98471B
:102CA00010BDC046008303C8004400419D330000AE
:102CB00030B583B001AC012363700022A270237091
:102CC00021000F200E4DA84721001020A847210009
:102CD0001120A84721000820A84721000920A84763
:102CE00021001B20A84721001F20A84721001E20EB
:102CF000A847044B9847044A044B5A6103B030BDBF
:102D0000552B0000952C0000008303C800440041AF
:102D100070B5054D002205492800054CA047022248
:102D200004492800A04770BDFC0300207B2B000055
:102D300079270000792B0000084B0F221A7001320E
:102D40005A7001329A70093ADA7001321A711232ED
:102D50005A7104329A71013ADA7170475C040020AA
:102D6000054BFF221A705A709A70DA701A715A71F4
:102D70009A71DA717047C0468004002010B5034B89
:102D80009847034B9847034B984710BD392D0000D7
:102D9000612D00007D2B000010B5044B9847044BBB
:102DA0009847044B9847044B984710BD292C0000C6
:102DB000B12C00007D2D0000112D00007047000097
:102DC0000C4B1B68002B06D1EFF31083002B07D0B0
:102DD0000022094B1A70074A1368013313607047C9
:102DE00072B6BFF35F8F0022044B1A700132024BA0
:102DF0001A70F0E7D4000020D80000200A0000205C
:102E0000084B1A68013A1A601B68002B09D1064B5F
:102E10001B78002B05D00122044B1A70BFF35F8F83
:102E200062B67047D4000020D80000200A000020BD
:102E300010B5082803D880001B4B1B589F46002064
:102E400030E01A4B18692DE0194B1B6A9B059B0F4C
:102E50001848D84026E0154B586923E0134B1B68EF
:102E600000209B071ED512491022CB681A42FCD0C5
:102E70000E4B1B685B0701D40F4813E000200F4B7B
:102E800098470A4B9B681B041B0C58430AE05023CD
:102E9000074AD35C00205B0704D5044BD86801E0E7
:102EA0008020000210BDC046903B0000DC000020E6
:102EB0000008004000127A00006CDC029132000031
:102EC00070B50C490B6A047885784078012210406F
:102ED00080014026B34303432A40D201802083432C
:102EE00013430322224012020348034013430B62A0
:102EF00070BDC04600080040FFFCFFFF082803D853
:102F00008000254B1B589F46172044E0234A136A34
:102F100002210B43136200203DE0204A9369022105
:102F20000B439361002036E01C4A138A02210B43B5
:102F3000138200202FE0194A938A02210B439382C7
:102F4000002028E016490B68022213430B60134B44
:102F50009A8419000E32CB681A42FCD0104A91684C
:102F60000E4BD96252689A6200229A84190010327C
:102F7000CB681A42FCD00A4B1B689BB2074A938469
:102F8000002008E0054944228B5C022003438B5457
:102F9000002000E000207047B43B00000008004023
:102FA000DC00002030B585B0C222D2001A4B9A60F6
:102FB0001A4A53681E218B43536001236A461370DB
:102FC0000024174DE0B26946A8470134182CF9D106
:102FD00003A800244470012585700470114B9847A4
:102FE0000620114B9847114B9847114B1C725C728D
:102FF0009C72DC7201956B465C7006236A46137006
:1030000014725472694600200A4B984700200A4BFC
:10301000984705B030BDC046000800400040004160
:1030200075320000C12E0000FD2E00003D30000072
:10303000000400406130000019310000064A936925
:1030400008210B4393610122044B1A7019000B787D
:103050001342FCD17047C04600040040000C004001
:1030600070B5060004000D782D0205434B78002B47
:1030700002D08023DB021D434B7A002B02D0802339
:103080001B031D434868012810D9431E184234D140
:10309000022830D90223002201325B009842FBD87B
:1030A00012023243140080235B031D430B7A002B72
:1030B00002D080239B031D43134A53785BB2002B3D
:1030C000FBDB124B9847124B1E700F4A53785BB2D2
:1030D000002BFBDB0C4B9C601A0053785BB2002B7F
:1030E000FBDB094A5368802149020B401D435560B0
:1030F000084B984770BD0022D2E704023443802376
:103100009B021D43D2E7C046000C0040C12D0000C9
:10311000080C0040012E000010B504000B4A537843
:103120005BB2002BFBDB0A4B98470A4B1C70074A2B
:1031300053785BB2002BFBDB044A516880235B02AF
:103140000B435360044B984710BDC046000C004031
:10315000C12D0000040C0040012E000070B50400D9
:103160001A4A53785BB2002BFBDB194B9847194B7B
:103170001C70164A53785BB2002BFBDB134E706851
:10318000C004C00E144B98470500124B1C707668A3
:10319000F602F60F114B1C700C4A53785BB2002BF1
:1031A000FBDB0A4B9C682402240C0D4B9847002E35
:1031B00007D1012C07D9210028000A4B98470500A8
:1031C00001E00134E540280070BDC046000C00401D
:1031D000C12D0000040C0040312E0000080C0040FE
:1031E000012E0000A935000010B50400064B9847D9
:1031F000064B1C70064A53888021C9010B4353803B
:10320000044B984710BDC046C12D0000020C004081
:10321000000C0040012E000010B504000F4B984731
:103220000F4B1C700F4A53881B05180F53880E490B
:103230000B40538053880D490B405380110080226E
:10324000D2014B881342FCD106494A880302064842
:10325000024013434B80064B984710BDC12D000020
:10326000020C0040000C0040FFF0FFFFFFBFFFFF1B
:10327000012E000010B50C7824020443024B98473D
:10328000A4B2024B5C8010BD19320000000C00405B
:1032900010B50400064B9847064B1C70064B5C8823
:1032A0002405240F054B98472000054B984710BD77
:1032B000C12D0000020C0040000C0040012E000057
:1032C0005D31000030B5D378002B35D11378802BD9
:1032D00029D01B0680246402234354780225AC4382
:1032E00006D19478002C20D18024A402234341608D
:1032F0005478013C012C1CD90D042D0CA024E405AC
:103300002C431C4384620D0CD02424062C431C4304
:103310008462D478002C22D15B031CD59378012BD6
:103320001ED0416117E00023D7E7C024E402234305
:10333000DDE70D4C2340DFE741600C04240CA023A3
:10334000DB05234383620C0CD0231B0623438362DB
:10335000D378002B03D15378013B012B02D930BD28
:103360008161F8E78160FAE7FFFFFBFF10B50A0013
:10337000C1090023002904D14309DB0105498C461A
:1033800063441F242040012181401800024B9847CC
:1033900010BDC04600440041C5320000F0B5C6462D
:1033A00000B5002301264024A046A44609E0C51824
:1033B00040352C7867463C43E4B22C700133202B17
:1033C0000CD00C00DC402642F8D0012AEFD0C41803
:1033D000403425784746BD432570EFE704BC90464E
:1033E000F0BD704710B5054B9847054B9847054B06
:1033F0009847054B9847054B984710BDA52F0000EF
:10340000BD2D0000E333000055180000E333000039
:10341000FEE7000010B5264A264B9A4211D01A004A
:10342000254B9A420DD2254A03339B1A9B08013340
:103430009B0000221F481E498C58845004329A4237
:10344000FAD11F4A1F4B9A420AD2D3431D495B1837
:1034500003218B4304339B18002102C29342FCD109
:10346000194AFF21194B8B439360FD3990235B0070
:10347000174AD150174B9A7B2E318A4320210A4399
:103480009A739A7B0C218A4308210A439A739A7B88
:1034900003218A4302210A439A730F4A5368802109
:1034A0000B4353600D4B98470D4B9847FEE7C046C2
:1034B000F83B000000000020700000200400002005
:1034C000700000208C04002000ED00E000080000E7
:1034D0000070004100480041004000419538000064
:1034E000553500000300064A1268002A04D0044A39
:1034F0001068C318136070470249014A1160F6E76B
:10350000F40000209008002010B50E4B1B78002B13
:103510000CD00D4B1B78002B00D010BD5521322054
:103520000A4B98470122084B1A70F6E7084B1B78A4
:10353000002BF2D100213220044B98470122044B8A
:103540001A70EAE70B000020FD000020ED1A0000D1
:10355000FC00002070B50A4B98470A4B98470A4B6D
:1035600098470A4B98470A4B98470A4B98470A4B8B
:1035700098470A4E0A4D0B4CB047A847A047FBE7B7
:10358000E5330000CD120000992D0000E11C000081
:103590009D1D0000ED1C0000B51100000935000064
:1035A0006D1B0000910D0000002243088B4274D374
:1035B00003098B425FD3030A8B4244D3030B8B4234
:1035C00028D3030C8B420DD3FF22090212BA030C3D
:1035D0008B4202D31212090265D0030B8B4219D31E
:1035E00000E0090AC30B8B4201D3CB03C01A52413E
:1035F000830B8B4201D38B03C01A5241430B8B4286
:1036000001D34B03C01A5241030B8B4201D30B036E
:10361000C01A5241C30A8B4201D3CB02C01A524195
:10362000830A8B4201D38B02C01A5241430A8B4258
:1036300001D34B02C01A5241030A8B4201D30B0241
:10364000C01A5241CDD2C3098B4201D3CB01C01A5B
:10365000524183098B4201D38B01C01A5241430965
:103660008B4201D34B01C01A524103098B4201D353
:103670000B01C01A5241C3088B4201D3CB00C01AC0
:10368000524183088B4201D38B00C01A5241430838
:103690008B4201D34B00C01A5241411A00D201465D
:1036A000524110467047FFE701B5002000F0F0F8E6
:1036B00002BDC0460029F7D076E7704703460B43AA
:1036C0007FD4002243088B4274D303098B425FD31B
:1036D000030A8B4244D3030B8B4228D3030C8B4247
:1036E0000DD3FF22090212BA030C8B4202D312122D
:1036F000090265D0030B8B4219D300E0090AC30B02
:103700008B4201D3CB03C01A5241830B8B4201D3AE
:103710008B03C01A5241430B8B4201D34B03C01A97
:103720005241030B8B4201D30B03C01A5241C30A0F
:103730008B4201D3CB02C01A5241830A8B4201D380
:103740008B02C01A5241430A8B4201D34B02C01A6A
:103750005241030A8B4201D30B02C01A5241CDD20F
:10376000C3098B4201D3CB01C01A524183098B425A
:1037700001D38B01C01A524143098B4201D34B0143
:10378000C01A524103098B4201D30B01C01A5241A6
:10379000C3088B4201D3CB00C01A524183088B422D
:1037A00001D38B00C01A524143088B4201D34B0016
:1037B000C01A5241411A00D2014652411046704788
:1037C0005DE0CA0F00D04942031000D3404253408D
:1037D00000229C4603098B422DD3030A8B4212D34D
:1037E000FC22890112BA030A8B420CD3890192117F
:1037F0008B4208D3890192118B4204D389013AD0BC
:10380000921100E08909C3098B4201D3CB01C01A90
:10381000524183098B4201D38B01C01A52414309A3
:103820008B4201D34B01C01A524103098B4201D391
:103830000B01C01A5241C3088B4201D3CB00C01AFE
:10384000524183088B4201D38B00C01A5241D9D216
:1038500043088B4201D34B00C01A5241411A00D297
:103860000146634652415B10104601D34042002B93
:1038700000D54942704763465B1000D3404201B512
:10388000002000F005F802BD0029F8D016E77047C7
:103890007047C04670B500260C4D0D4C641BA4103B
:1038A000A64209D1002600F097F90A4D0A4C641B84
:1038B000A410A64205D170BDB300EB58984701365D
:1038C000EEE7B300EB5898470136F2E7E43B00001F
:1038D000E43B0000E43B0000E83B000010B5034B74
:1038E0000100186800F016F810BDC0460C0000205A
:1038F000002310B59A4200D110BDCC5CC4540133F2
:10390000F8E703008218934200D170471970013321
:10391000F9E70000032370B5CD1C9D430835060070
:103920000C2D1ED20C25A9421DD8300000F062F8E3
:10393000254A14682100002919D1244C2368002B42
:1039400003D1300000F044F820602900300000F07E
:103950003FF8431C2CD10C233000336000F04BF8AF
:1039600003E0002DDFDA0C233360002070BD0B680C
:103970005B1B1AD40B2B03D90B60CC18256003E01A
:103980008C420ED163681360300000F034F82000E0
:1039900007220B30231D9043C31AE7D05A42E2504E
:1039A000E4E74B6863600C00EEE70C004968C2E78F
:1039B0000323C41C9C43A042E0D0211A300000F035
:1039C00007F8431CDAD1C6E70401002008010020F3
:1039D000002370B5064C050008002360FFF782FD48
:1039E000431C03D12368002B00D02B6070BDC04660
:1039F0008804002070477047E40D0000B60D0000F9
:103A0000B60D0000060E0000280E0000780E000023
:103A1000C80E0000EC0E0000FA0E00001E0F0000A1
:103A2000420F0000B20F00001E1500006A170000D0
:103A30006A1700006A1700006A1700006A17000082
:103A40006A1700006A1700006A1700006A17000072
:103A50006A1700006A1700006A1700006A17000062
:103A60006A1700006A170000061500006A170000B8
:103A70006A1700006A1700006A1700006A17000042
:103A80006A1700006A1700006A1700006A17000032
:103A90006A1700006A1700006A1700006A17000022
:103AA0006A1700006A170000161500006A17000068
:103AB0006A1700006A1700006A1700006A17000002
:103AC0006A1700006A1700006A1700006A170000F2
:103AD0006A1700006A1700006A1700006A170000E2
:103AE0006A1700006A1700000E1500002615000076
:103AF000EE140000FE140000F614000002000000A6
:103B000003000000040000000500000006000000A3
:103B1000070000000E0000000F0000000A00000077
:103B20000B000000FFFF0000FFFF0000FFFF000090
:103B3000FFFF0000FFFF0000FFFF0000FFFF00008D
:103B4000FFFF0000FFFF0000FFFF00000008004231
:103B5000000C0042001000420609080001000000AD
:103B60000200000004000000080000000010000037
:103B70000020000000400000008000000000010064
:103B80000000020000000400000008000D0E00000C
:103B9000422E00003E2E00003E2E0000A02E00000F
:103BA000A02E0000562E0000482E00005C2E0000C3
:103BB0008E2E0000282F0000082F0000082F000084
:103BC000942F00001A2F0000362F00000C2F000049
:103BD000442F0000842F0000F8B5C046F8BC08BC94
:103BE0009E467047B5080000F8B5C046F8BC08BC52
:083BF0009E4670478D0800009D
:103BF800401F00000800000008010101100000201B
:103C080000000000000000000000000000000000AC
:103C1800000000000000000000000000000000009C
:103C2800000000000000000000000000000000008C
:103C3800000000000000000000000000000000007C
:103C4800000000000000000000000000000000006C
:103C5800000000000000000000000000000000005C
:0400000300003415B0
:00000001FF
