:10000000C00700207D2F0000792F0000792F00000D
:1000100000000000000000000000000000000000E0
:10002000000000000000000000000000792F000028
:100030000000000000000000792F0000792F000070
:10004000792F0000792F0000792F0000792F000010
:10005000FD1E0000792F0000792F00000000000035
:10006000792F0000CD1E0000DD1E0000ED1E0000F7
:10007000D11A00004D1E00005D1E0000F90C0000AA
:10008000792F0000792F0000792F000010B5064C61
:100090002378002B07D1054B002B02D0044800E049
:1000A00000BF0123237010BD740000200000000079
:1000B00028370000084B10B5002B03D0074908482B
:1000C00000E000BF07480368002B00D110BD064BBD
:1000D000002BFBD09847F9E70000000078000020D3
:1000E000283700002837000000000000F0B58BB072
:1000F00005000C00160029600B681C209B0701D529
:100100000BB0F0BD0B681738DB07F9D408006F4B54
:1001100098476F4A116A871C0123BB400B43136247
:1001200009A92427F35D0B700E30C3B201931800A8
:10013000684B98470198684B9847F05D0021674BE2
:1001400098473378012B3FD03378002B03D12368B5
:100150000822134323602B000C332900283100228E
:1001600004C38B42FCD10023EB62AB620024AB865C
:100170002B863633EC540133EC540133EC54353BCD
:100180006B722C712868514B984707005449554BA6
:100190009847BF00544BFD502F6804AB80221A7063
:1001A0005C707F3A9A70DC703378002B02D10022A9
:1001B00004AB9A70B36A0593F36A0693336B0793A3
:1001C000736B089300240BE023680C221343236015
:1001D000BAE73800454B98470AE00134042C10D0A8
:1001E000E1B2A30002AA0C201218D0580028F0D0C7
:1001F000431CF2D004A90870000CC0B23C4B9847D5
:10020000EBE733786B71337CAB71B37CEB71337D8F
:100210002B72002202ABDA803378012B12D03378B4
:10022000002B26D1B069B28B7B6AF17F0904B47FC1
:100230002143194379622023F35C002B1BD0402318
:100240001A4318E02868214B98470E30C0B2294B5A
:100250009847010002AB9A1DB069274B98470300ED
:100260001720002B00D04BE702AB06331B783B7303
:10027000D5E7002200207368B1680B43F1680B4397
:100280000343317C0A43717C002903D11B498978DF
:10029000890701D580210B43B17C002902D0802140
:1002A00089020A43F17C002902D0802189000A4397
:1002B000317D002902D0802189010A4339680B432E
:1002C0003B607B681A437A60002019E7710F0000D9
:1002D00000040040DD2D0000512D0000650E0000DF
:1002E0005D030000711E00000C020020B10E000032
:1002F000D52E0000F92D00003D0E00000020004129
:10030000931C9B00C31859603621012393401A00A7
:10031000435C13434354704730B51724002B01D17D
:10032000200030BDC5790534002DF9D01C34055DA1
:10033000333C052DF4D0838603868262C162052298
:100340003823C254363B437203689A7542790024BD
:10035000002AE5D102321A769A75E1E7F8B58000F5
:100360008A4BC45826683723E75C3622A25C1740C4
:10037000337EB57D1D40EB072DD56379012B24D04D
:10038000002B28D1637A002B25D02168E26A1378EC
:10039000DBB2501CE062A07901285FD09BB2DB0584
:1003A000DB0D8B62A38E013B9BB2A386A38E9BB217
:1003B000002B10D101333375637A012B0BD1E37914
:1003C000002B08D10233B37505E0637A002B34D0DB
:1003D000637A002BD9D16B0711D5738B5B0747D597
:1003E000637A012B08D01E223823E254353B637216
:1003F000023333753B0737D4B36A04237383AB07E7
:100400000BD56379002B04D10022614B1A700223B3
:1004100033766379012B00D194E02B0708D56379FB
:10042000002B05D1083333753376BB0600D59FE02A
:100430006DB2002D00DA9FE0F8BD564B1B88B36209
:10044000638E013B9BB26386638E9BB2002B01D10E
:10045000013333756379012BBAD091E750780002EC
:1004600003430232E2629AE72000A3699847C3E798
:10047000637A012B2CD023689B6ADB05DB0DDAB293
:10048000A16A0A70A26A511CA162A179012938D01F
:10049000238E013B9BB223863D4A13780133DBB2A6
:1004A0001370012B33D0238E9BB2002BA7D10022D7
:1004B0003833E254343B3375637A022B3BD0637A92
:1004C000002B9CD1BB079AD520002369984796E75B
:1004D00023689B6A638E013B9BB26386638E9BB2EB
:1004E000002B00D08BE70433337500223433E25401
:1004F000353B6372FB0700D481E72000E36898472F
:100500007DE71B0A5370A36A0133A362C0E7A36AA5
:100510005A1E1278D2B2CA2A04D0013B1B78DBB231
:10052000CC2BC0D1A38E0F339BB2A386238E0F3367
:100530009BB22386B7E77B0700D460E7200063699E
:1005400098475CE7637A012B00D071E7E379002BD1
:1005500000D06DE702333375013363720022353307
:10056000E254FB0700D458E72000E368984754E7BB
:100570002000236A98475BE78023337533767B0638
:1005800000D459E7636A2000984755E70C02002021
:1005900090000020E800002070B584B010220F23E6
:1005A0006B441A70484B78321A7022325A701132EA
:1005B0009A701132DA70454B1B78002B13D0444AE5
:1005C00013781278D2B23F218B43C02B0DD000227A
:1005D0003E4B1A7004233E4A3E493F483F4CA047D9
:1005E0000F236B44187004B070BD813B1A40D3B226
:1005F0000B2BECD892003A4B9B589F46344B5978C2
:10060000C9B23120374B9847E1E7314B5978C9B22D
:100610003220344B9847DAE72D4B5978C9B29A7893
:10062000D2B2DB78DBB231202F4CA047CFE7284B8A
:100630005978C9B29A78D2B2DB78DBB232202A4C30
:10064000A047C4E7224B5978C9B23120274B9847BD
:10065000BDE71F4B5978C9B23220244B9847B6E703
:100660001B4B5978C9B23320204B9847AFE7184B42
:100670005978C9B234201D4B9847A8E7144C6078CC
:10068000C0B2A178C9B2E278D2B22379DBB265797F
:10069000A67901960095164DA847E079C0B2217A57
:1006A000C9B2144B9847E07AC0B2217BC9B2627BD1
:1006B000D2B2A37BDBB2104CA04788E70F4B984720
:1006C0000F4B984783E7C046A8020020DF000020B8
:1006D00090020020A4020020EC000020190300007A
:1006E00024350000ED0F0000B91000008514000053
:1006F0006D100000A90F00008513000039100000E4
:100700000D1100000122014B1A707047DF0000201C
:1007100070B58EB000240194C0239B0303936B46F5
:100720001C745C7401259D74DD741C7524236A4659
:10073000D4540C22002106A8154B9847C0239B05D2
:1007400002936B461C7020236A46D5540694114BC5
:100750000A93114B0B93114B0C93114B0D93114EAC
:1007600011493000114B984734682000104B9847CE
:100770001F23184085400F4B1D603268D369002B42
:10078000FCD123680222134323600EB070BDC04623
:100790002F340000020016000200170002001800AB
:1007A00002001900EC000020000C0042ED000000E7
:1007B000AD1E000000E100E010B5064C0222064923
:1007C0002000064B98473722A35C04210B43A35417
:1007D00010BDC046EC00002005070000010300002A
:1007E000F0B583B010226B46DA71104B9847104B6E
:1007F000984772B6BFF35F8F00220E4B1A700E4EF1
:100800000E4D0F4C04233200290020000D4FB84735
:100810006B46D87107331B78002BF3D10122054BAF
:100820001A70BFF35F8F62B603B0F0BD110700000E
:10083000B90700000C00002090020020A402002054
:10084000EC0000201903000070B50020084B984709
:100850000500084CFA218900A047074B186007499A
:100860002800A047064B18600522064B1A6070BD91
:10087000C52C0000D53000000000002040420F00D1
:100880000400002010E000E010B5002200230270F8
:10089000427000214280017103760262C26182606F
:1008A0000373C0246401C481037443748374C374E8
:1008B00003752A24035543758375063C0355C2848A
:1008C0000285C1752B23C1540133C15410BD0000F2
:1008D000F0B5D6464F464646C0B596B0070016005E
:1008E0000160C64A106A80235B00034313620B78E1
:1008F0000520DB0705D516B01CBC90469946A246DC
:10090000F0BD0B7817309B07F5D473783B71002B43
:1009100004D1BB4A136C04210B4313640023BB6056
:10092000FB603B61BB76FB763B833B77B54B1F603F
:100930002A23F35C002B05D1337D002B02D1013338
:100940007B7701E000237B773B68984633786A46E3
:10095000137069461320AC4B98471320AB4B984754
:100960002C23F25C002A54D0013BF55C337BEB185E
:10097000DBB2D118C9B28B4221D25219D3B29946F7
:10098000A34B9A4603E00135EDB24D4517D00F2435
:100990002C40337BE41850229E4902A8D047092CF2
:1009A000F1D8A40002ABE05801A900234B70CB7032
:1009B0008B7001330B70C0B2974B9847E3E7F48913
:1009C0005022944902A8924B9847092C13D9737D61
:1009D0009B00DBB242461370B37DDB017278134398
:1009E000DBB2424653703379342B00D97BE19B0054
:1009F0008A4AD3589F46A40002ABE05801A90023BD
:100A00004B70CB708B7001330B70C0B2824B984728
:100A1000DDE7347B50227F4902A87D4B9847092CA3
:100A200015D9F48950227B4902A8794B9847092CA3
:100A3000CDD8A40002ABE05801A900234B70CB70C5
:100A40008B7001330B70C0B2734B9847BFE7A400A3
:100A500002ABE05801A900234B70CB708B700133BF
:100A60000B70C0B26C4B9847DBE7042310240221C3
:100A70001AE0717C337C102416E006231024012137
:100A800012E00823102400210EE00023302400216E
:100A90000AE000232024002106E000230024002196
:100AA00002E0022310240121090170220A401343AD
:100AB00042469370F37D17203F2B00D91BE7D3707C
:100AC0003A68537E5BB2002BFBDBF37C72881343E6
:100AD0002422B25CD2001343327D92001343B27CD5
:100AE00052001343234342469380337E002B20D091
:100AF000102C00D1D9E000D898E0202C00D1B6E02D
:100B0000302C16D1F27C002A0AD0F26980321720EC
:100B1000FF2A00D9EFE6326A8032FF2A00D9EAE6DE
:100B20001720F269FF2A00DDE5E6326AFF2A00DDC0
:100B3000E1E639684A7E52B2002AFBDB4246137274
:100B40003A68537E5BB2002BFBDBB38B4246938348
:100B50003A68537E5BB2002BFBDB338C4246138436
:100B60002C23F35C002B05D0013BDBB217200F2BAD
:100B700000D9C0E62B22B15C17200F2900D9BAE6B4
:100B80003868427E52B2002AFBDBF289307B024396
:100B9000B068024309050A431B041343424613612C
:100BA0002A23F35C13750F2393751533F35C002B25
:100BB00012D0F38C1A4A1720934200D99BE6424682
:100BC0009384328D80231B01D31815499BB28B422D
:100BD00000D990E64346DA84124B1B685B01E022A1
:100BE000D2001340104A516849011268D20E0A43DC
:100BF000D2B213434246138500207CE60004004035
:100C0000000800405C010020DD2D0000512D000097
:100C10001D34000028360000D52E00005435000099
:100C2000FF0F00002460800020608000002C00D0B6
:100C30007FE7F27C002A0FD0F269802109018C46FF
:100C400062442A4917208A4200D954E6326A624433
:100C500026498A4200D94EE6244A1720F16991427A
:100C600000DD48E6316A914200DD44E661E7F27C4E
:100C7000002A0FD0F269802189008C4662441C4909
:100C800017208A4200D936E6326A624418498A42FD
:100C900000D930E6164A1720F169914200DD2AE6B4
:100CA000316A914200DD26E643E7F27C002A0FD04C
:100CB000F269802109028C4662440E4917208A425B
:100CC00000D918E6326A62440A498A4200D912E61B
:100CD000084A1720F169914200DD0CE6316A914221
:100CE00000DD08E625E7172005E6C046FF0F0000F7
:100CF000FF030000FFFF000070B52E4B1C68236847
:100D00001D7EEDB2EA0705D5E27ED20702D5A27EAE
:100D1000D20716D46B0708D5042322681376E37E26
:100D20009B0702D5A37E9B073CD4AB0708D50223C3
:100D300022681376E37E5B0702D5A37E5B0735D47A
:100D400070BD01221A762268537E5BB2002BFBDB5A
:100D500061698B1C6361538B9BB20B80238B013BBE
:100D60009BB22383002B11D0637F002BD2D022684B
:100D7000537E5BB2002BFBDB137B02210B4313730F
:100D80002268537E5BB2002BFBDBC3E7237F052B7E
:100D9000C0D1002323770133226893752000A36814
:100DA0009847B7E72000E3689847BEE7236920002B
:100DB0009847C5E75C010020044A137802210B43E1
:100DC000137053785BB2002BFBDB704700180040B8
:100DD00000B583B0124A936940210B43936101A986
:100DE00000230B7005200F4B984705200E4B9847AA
:100DF0000E4A137801210B43137053785BB2002B1A
:100E0000FBDB0B4B19004031002204C39942FCD19B
:100E10001022084B1A60084B984703B000BDC0462B
:100E200000040040DD2D0000512D0000001800409E
:100E30006001002000E100E0B90D000010B5490894
:100E400040230024814202D2180010BD1C00091A60
:100E5000631C9BB28842F9D94023FF2CF4D814803C
:100E60000023F1E710B582B004000E4B1B78002B75
:100E700007D0002905D10B4B5B78834210D01D2091
:100E80000CE001A90C700D20074B98470D20074B73
:100E90009847044B5C7001221A70002002B010BD0C
:100EA0000020FBE794000020DD2D0000512D000004
:100EB000204B984217D0204B984224D01F4B984289
:100EC00001D000207047012907D000292BD002292A
:100ED00005D0032905D00020F4E71948F2E71948A6
:100EE000F0E71948EEE7012907D000291DD00229B3
:100EF00005D0032905D00020E4E71448E2E71448B0
:100F0000E0E71448DEE7012907D000290FD00229C5
:100F100005D0032905D00020D4E70F48D2E70F48B9
:100F2000D0E70F48CEE70F48CCE70F48CAE70F4895
:100F3000C8E7C046000C0042001000420008004212
:100F4000030005000300060003000700020017006D
:100F500003001E0003001F00030017000300100021
:100F6000030019000300040002001600030016002D
:100F700030B585B001AA0B4B32CB32C20300019AC7
:100F800082420CD0029A824207D00020039A9A42F1
:100F900001D005B030BD023002E0012000E00020A9
:100FA000C0B2F6E77836000010B5FF2810D0FF2950
:100FB00010D0094BC0431870C9435970074B98476C
:100FC000074B9847074B98470122074B1A7010BDF3
:100FD0000138ECE70139ECE7380200201522000067
:100FE0004D22000079220000B200002010B5FF2938
:100FF0000DD031280DD032280FD00A4B98470A4B1C
:1010000098470A4B98470122094B1A7010BD0139C5
:10101000EFE7C943074B1970EFE7C943054B597018
:10102000EBE7C046152200004D22000079220000A7
:10103000B20000203802002010B5074B0A221A70B7
:1010400046325A70054B9847054B9847054B9847D1
:101050000122054B1A7010BD380200201522000035
:101060004D22000079220000B200002070B504ACCF
:10107000267805AC25780B4CC0432070C9436170BD
:10108000D243A270DB43E370F6432671ED436571F2
:10109000054B9847054B9847054B98470122054B50
:1010A0001A7070BD8802002095280000C12600003B
:1010B0009D250000B600002010B531280BD0322845
:1010C00011D00D4B98470D4B98470D4B9847012277
:1010D0000C4B1A7010BD0C48C9430170D2434270CA
:1010E000DB438370EDE70848C943C170DB430371FC
:1010F000D2434271E5E7C04695280000C1260000B2
:101100009D250000B60000208802002010B5094B84
:10111000FF221A705A709A70DA701A715A71064B5F
:101120009847064B9847064B98470122054B1A7083
:1011300010BDC0468802002095280000C12600008E
:101140009D250000B6000020F8B50024054F064E8E
:10115000064DE05DB047C0B228550134042CF8D1EB
:10116000F8BDC04684360000FD110000A402002036
:1011700010B58CB068461A4B98470220194B984717
:10118000194B186001236A465370E022D200694669
:101190004A8006220A73C0225201CA8130220A7193
:1011A0006A468B74114C12492000124B98472268F2
:1011B000537E5BB2002BFBDB802109020E4B1960D2
:1011C0000F2393751376137802210B431370074B8B
:1011D0001A68537E5BB2002BFBDB0CB010BDC0461F
:1011E000890800000934000098000020A0010020B8
:1011F00000200042D108000000E100E030B52D4B96
:1012000019684B7E5BB2002BFBDB0B691F229343FB
:10121000184308614B7E5BB2002BFBDB4B7E5BB25D
:10122000002BFBDB0B7B022213430B734B7E5BB269
:10123000002BFBDB01200425022401E010420AD12F
:101240000B7EDBB202001A401D4200D022431C423A
:10125000F4D02A43F2E70A7ED2B2012313405007AA
:1012600001D502200343920701D504221343DB0773
:1012700003D4114B1B68188830BD4B7E5BB2002B2A
:10128000FBDB0D4B1B684A8B1A800A4B1968012344
:101290000B760A7ED2B21340500701D502200343D9
:1012A000920701D5042213435B07E2D502230B7694
:1012B000DFE7C046A00100209800002010B5014BD8
:1012C000984710BD71110000054B1A680221936800
:1012D0001942FCD1136802210B4313607047C046CA
:1012E000C001002030B5ABB01A4D01AC2900200080
:1012F000194B98470223E372184A62602376002351
:1013000023756375A375E375E36101229821625427
:101310009439A1651249A1672362992162549439D5
:10132000E1651049E16763629A216254943921664C
:101330000D487A316050A3629B33E254943B63665C
:101340000A4A7D33E250220029000948094B984798
:101350002BB030BD00140042B1150000409C0000CD
:101360000500040005000500050006000500070053
:10137000C0010020ED16000010B5014B984710BDCC
:10138000E5120000F8B507000E0015001C00364BF2
:101390001B78834210D0FF284ED0DC200001784318
:1013A000FE21324B9847A023DB00C21800213048B1
:1013B000304B98472C4B1F702F4B1B78B34210D0EB
:1013C000FF2E3FD0DC2000017043FE21274B9847C1
:1013D000A023DB00C21801212548264B9847264B45
:1013E0001E70264B1B78AB4210D0FF2D30D0DC2076
:1013F00000016843FE211D4B9847A023DB00C21863
:1014000002211B481B4B98471C4B1D701C4B1B7823
:10141000A34210D0FF2C21D0DC2000016043FE212C
:10142000124B9847A023DB00C21803211048114B30
:101430009847134B1C70F8BD002200210C480D4B3F
:101440009847B7E70022012109480A4B9847C6E7A9
:10145000002202210648074B9847D5E700220321C6
:101460000348044B9847E4E79C000020E931000062
:10147000C0010020751A00009D0000209E00002081
:101480009F00002010B532282CD013D933283FD02C
:10149000342820D1FF2951D0DC2000014843FE210F
:1014A000294B9847A023DB00C21803212748284B6B
:1014B000984710E031280ED1FF290DD0DC20000123
:1014C0004843FE21204B9847A023DB00C21800218F
:1014D0001E481F4B984710BD002200211B481C4B83
:1014E0009847F8E7FF290DD0DC2000014843FE2192
:1014F000154B9847A023DB00C21801211348144B59
:101500009847E8E7002201211048114B9847E2E78D
:10151000FF290DD0DC2000014843FE210A4B9847EB
:10152000A023DB00C21802210848094B9847D2E7E4
:10153000002202210548064B9847CCE700220321F0
:101540000248034B9847C6E7E9310000C00100207C
:10155000751A00000020704730B5040017200329D9
:1015600000D930BD114DAA42FBD82068002B10D005
:10157000802464028C40036B1C42FCD18024240331
:101580008C4083681C42FCD11C3189000A50002029
:10159000E7E7802464008C4083681C42FCD1103152
:1015A000890041184A600020DBE7C046FFFFFF00CA
:1015B000002303604C4A42608372C3720373437218
:1015C0000372C3610362436283620375437583756B
:1015D000C37503764376037443748374C3742C22F7
:1015E00083540132835401328354013283540132D3
:1015F00083540132835401328354013283540132C3
:1016000083540132835401328354013283540132B2
:1016100083540132835401328354013283540132A2
:101620008354013283540132835401328354013292
:101630008354013283540132835401328354013282
:101640008354013283540132835401328354013272
:101650008354013283540132835401328354013262
:101660008354013283540132835401328354013252
:101670008354013283540132835401328354013242
:1016800083540132835401328354013283544132F2
:1016900083548365836701328354C365C367013212
:1016A000835403661A3A83501B3283544366173AB5
:1016B0008350183283548366143A8350153283540E
:1016C000C366113A83501232835403670E3A835033
:1016D0000F32835443670B3A835001210C328154FB
:1016E000013283547047C046FFFFFF00F0B5DE466D
:1016F00057464E464546E0B58DB006000C00150035
:101700000800CD4B98470300CC490A6A20200243C9
:101710000A6222680438920706D50DB03CBC904698
:101720009946A246AB46F0BD226801271740F4D186
:10173000C34A053829689142EFD869689142ECD8CC
:10174000E969914200D98BE1296A914200D989E186
:10175000696A914200D987E1A96A914200D985E17D
:101760002A7C013A50425041020601926A7C012AC9
:1017700031D0AA7C012A34D0EA7C012A37D0A122B8
:10178000AA5C002A04D08022120101991143019120
:101790002A7A511E8A41920003926A7A012A2CD039
:1017A0003522AA5C032A00D962E12C21695C0F2949
:1017B00000D95DE1287B0490E87A05902D208246CF
:1017C000AA4400200297844606960E00A04654467E
:1017D000A946079347E080229204019911430191A1
:1017E000C7E78022D204019911430191C4E7802206
:1017F0001205019911430191C1E703991143039126
:10180000CEE79202C0252D012A4032430D790326EE
:101810002E40324355462A434E79760160253540A5
:101820002A438D792D02C026B60035402A43CD7952
:101830002D03E026F60135402A43104303431F439E
:1018400008AB624608201B189F50042A28D08A7CC7
:10185000032A00D90CE14E7A0A3404239A46D44470
:101860000F2E00D904E13606F0231B051E4021008F
:1018700025782D04FF231B041D40AA466378802091
:10188000002B00D102988F780823002F00D1029BF3
:10189000CF78BB4610275D46002DB2D1029FB0E73E
:1018A000069E44464D46079B4846503049464131C6
:1018B000002280277F02BC460127B9460227FF3756
:1018C000BA461F001300A0463C0007E05746974069
:1018D0003B43013201300231082A0ED00778002F35
:1018E00002D0674697403B430F78002FF1D0022F7C
:1018F000ECD04F4697403B43EBE7220044469846E6
:1019000013006A7E120130211140287E0722024016
:1019100011430022802040020F0002E00132042A1D
:1019200007D0A918097D0029F8D0010091400F4384
:10193000F4E7B946321D30003430002102C2904233
:10194000FCD100227263B2639B003E4A9E50346019
:10195000A023EA5C643BF25409A9AB7A0B70112016
:10196000394B98471120394B98472F0098372E0054
:10197000583678239A46AA44773B9B462300544620
:101980009A4603E001370436B44214D03B78002B6A
:10199000F8D008AB5A469A70002308AAD3701300F7
:1019A0002022B21812781A705A465A7030781900EC
:1019B000274B9847E6E75446049B1B03059A1202FF
:1019C0001343019A134323600422A3681A42FCD1F3
:1019D000FF2323710422A3681A42FCD16B461B7BB0
:1019E00063710A9BE3600B9B23614346A361194A21
:1019F000A3681342FCD14B46E3631022A3681A424A
:101A0000FCD12B686363144AA3681342FCD16B6852
:101A100023641C350021114802008A40A3681A4241
:101A2000FCD104CD0B0010339B00E3185A60013148
:101A30000429F1D1002070E6551500000004004093
:101A4000FFFFFF0000020020DD2D0000512D0000EF
:101A5000D52E0000400002008000040000010800B4
:101A600017205AE6172058E6172056E6172054E6A6
:101A7000172052E610B53C23C35C014CA04710BDB3
:101A800059150000F0B5C64600B580000E4BC7588A
:101A90003B68DE6ABB6B7A6B13401E4000240B4B25
:101AA000984602E00434302C0AD04346E5583542CB
:101AB000F8D03B195B68380098473B68DD62F1E776
:101AC00004BC9046F0BDC0460002002088360000ED
:101AD00010B50020014B984710BDC046851A000084
:101AE000064B984208D0064A0023904201D01800C5
:101AF00070470133DBB2FAE70023FBE7001800422E
:101B0000001C0042F0B585B004000D00160008006E
:101B1000824B9847070003AB12221A705A7002AB2F
:101B20002E321A8040325A800023A360E360236182
:101B30006361237663768200794BD4502560B37855
:101B4000082B06D023712B880520DB0705D505B0AF
:101B5000F0BD1720FA07FAD4F4E7EB7B1730DB0669
:101B6000F5D42B889B07F2D4337C002B00D07AE08D
:101B7000337F002B00D082E06A49086A7A0002AB0A
:101B8000D35A03430B62B378082B00D187E0337834
:101B90006A46137003ABDF5D69463800624B9847B5
:101BA0003800624B98473189B3880B43B178B279DA
:101BB000114319437378002B02D080231B01194372
:101BC0002268D37B5BB2002BFBDB2980717B4B1E31
:101BD00099418900B37B002B01D00123194322686E
:101BE000D37B5BB2002BFBDBFF232B71002905D0DD
:101BF0002268D37B5BB2002BFBDB6971B17AF37A8D
:101C0000002B01D010231943337B002B01D020235C
:101C100019432268D37B5BB2002BFBDBA9712268DE
:101C2000D37B5BB2002BFBDB2379042B3FD0082B4B
:101C30005ED01720002B00D089E7D37B5BB2002B4E
:101C4000FBDB338D2B822268D37B5BB2002BFBDB6B
:101C5000738D2B832268D37B5BB2002BFBDBB38DB0
:101C60006B83002073E701A901238B700022CA70E7
:101C7000327E0A704B70307D2D4B984778E701A972
:101C800001238B700022CA702432B21812780A70B5
:101C90004B701F33F3181878254B98476CE7086A88
:101CA0007A1C520002ABD35A03430B626FE7D37B1B
:101CB0005BB2002BFBDB2823F35C2B742268D37B05
:101CC0005BB2002BFBDB2923F35C2B752268D37BF3
:101CD0005BB2002BFBDB2A23F35C2B762268D37BE1
:101CE0005BB2002BFBDB2B23F35C6B7600202EE733
:101CF000D37B5BB2002BFBDBB36A2B612268D37B07
:101D00005BB2002BFBDBF36AAB612268D37B5BB277
:101D1000002BFBDB336BEB61002018E7E11A0000BE
:101D20000402002000040040DD2D0000512D0000C1
:101D3000D52E00000268D37B5BB2002BFBDB03795E
:101D4000042B05D0082B0BD01720002B04D0704794
:101D5000C9B211740020FAE789B211820020F6E7B7
:101D600011610020F3E710B50468E37B5BB2002B40
:101D7000FBDB0379042B05D0082B14D01720002B94
:101D800008D010BD17200129FBD8D2B261180A76FD
:101D90000020F6E717200129F3D892B20C31490050
:101DA0000A530020EDE717200129EAD806318900FF
:101DB0000A510020E5E7931C9B001950022A09D024
:101DC000032A0CD0012393401A00037E13430376A9
:101DD00000207047037E102213430376F8E7037E4A
:101DE000202213430376F3E770B58000164BC458E6
:101DF00023689D7B227E637E13401D40EB0706D443
:101E0000AB070BD4EB0610D4AB0615D470BD200085
:101E1000A3689847012322689373F1E72000E368E1
:101E20009847022322689373ECE7200023699847C0
:101E3000102322689373E7E72000636998472368BB
:101E400020229A73E2E7C0460402002010B5002069
:101E5000014B984710BDC046E91D000010B5012098
:101E6000014B984710BDC046E91D000070470000B7
:101E700030B50A4B1B78002B0CD1094C094D25605D
:101E8000094B00221A6065605A60A5609A600132B1
:101E9000024B1A708000024BC15030BDA0000020E0
:101EA000A40000206D1E00000C02002010B582B0BE
:101EB00001AC09232370013363700133A370024B1B
:101EC0009847205602B010BD710F000010B5024BAC
:101ED0001B680020984710BDA400002010B5024BDD
:101EE0005B680120984710BDA400002010B5024B8C
:101EF0009B680220984710BDA400002070B5002206
:101F0000104B1A70002310491F25104E0D4C0AE08B
:101F10000D4908E023780133DBB223700F2B10D872
:101F200000211F2BF4D928001840012282400869A3
:101F30001042EFD00A619B009B59002BEAD09847D2
:101F4000E8E770BD18020020001800406001002082
:101F500000B583B001AB80221A700A785A704A78B3
:101F60009A708A78DA701900014B984703B000BD67
:101F7000D52E0000F0B5DE4657464646C0B582B0C5
:101F800001904F4B1B78002B00D091E04D490B780E
:101F90005A1CD2B20A704C49C95CC80900230028F7
:101FA00004D14B09DB014948844663441F200840A3
:101FB000012181409961464B1E78464B1B78013BBD
:101FC00098469E426EDA4448815D444B1970013652
:101FD000F6B23F4B1E703300855D41480570A94243
:101FE00035D1B04552DB100037498B461F218A4658
:101FF0000127394CB61A0FE0554629403D008D4067
:102000008561E15C9319DBB20093E05C8446814218
:1020100012D1100098452CDB421CD2B25946095C03
:10202000C809844600206546002DE5D14809C00155
:10203000264DAC466044DFE70500284B1970244B61
:10204000684600781870264B1D701E4B1A70FF2DC5
:102050001ED0019C2000234B9847214B1A78002169
:102060002000214B984702B01CBC90469A46A346DC
:10207000F0BD6546194B1970154B6846007818700D
:10208000174B19700F4B1A706146E0E70D00DEE741
:10209000019C2000134B9847002200212000124B86
:1020A0009847E0E70022002101980F4B9847DAE7B4
:1020B0000022034B1A70002101980B4B9847D2E77E
:1020C0000900002043020020440200200044004197
:1020D000420200200800002040020020B100002041
:1020E000B0000020351D0000671D000010B58EB047
:1020F00001AA0023002113709371138100205070F6
:102100009172D17211739173517311745361936110
:10211000117713625362138553859385C023DB00C7
:10212000938004239370FF212533D154074C084931
:102130002000084B98472268D37B5BB2002BFBDB67
:10214000138802210B4313800EB010BD1C02002027
:10215000001C0042051B000010B50122C021090629
:102160000148024B984710BD00440041052F000074
:1021700030B583B001AC012363700022A2702370DC
:1021800021001F20064DA84721001E20A847054B0F
:102190009847C0221206044B5A6103B030BDC046B6
:1021A000511F00005921000000440041F8B5CE46FF
:1021B000474680B5134C2068134B99469847134BFC
:1021C00098461B5C1F26334001252A009A40104F79
:1021D0003A60637E01221343637623685D731800BF
:1021E000C84743461B5C1E40B5403D60637E1022DD
:1021F00013436376236810225A730CBC90469946A9
:10220000F8BDC0461C020020E11A0000B8360000EC
:1022100000E100E0024B1F221A70013A5A70704729
:102220003C020020024BFF221A705A707047C046D1
:1022300038020020034B044A1178197052785A7002
:102240007047C046480200203802002010B5074BF6
:102250009847074B1A7859788A4206D919705A70EC
:10226000044B1A78597819705A7010BD3522000045
:10227000480200203C0200200022144B1A70144B2C
:102280001A78FF2A16D00120012312490A70124A37
:102290001178124A11700E4A5278FF2A0DD001337C
:1022A000DBB20C494A700C4A51780C4A5170074A0B
:1022B00013700AE000200023E7E706494A70064A47
:1022C0005178064A51700028F1D17047080000206B
:1022D00048020020400200203C020020440200206E
:1022E00070B50400254A13780133DBB2137024491A
:1022F0000B780133DBB20B701378DBB20A2B05D9F4
:102300000122204B1A7000221C4B1A70C0221206A8
:102310001D4B5A611D4B1B78002B10D100231C4A0A
:1023200013701C4A13701C4B1A78FF2A20D11B4BC8
:1023300010211A6811735A7E8A435A7670BD174D60
:102340002868174B9847174B1B5C1F221A40012324
:102350009340154A13606B7E102213436B762B68F3
:1023600010225A73114B98470022084B1A70D5E778
:10237000002120000E4B9847E0E7C046DE00002019
:10238000DC000020DD00002000440041B2000020FD
:102390004202002043020020400200201C020020D4
:1023A000E11A0000B836000000E100E079220000E8
:1023B000671D000010B5044B9847044B9847044B29
:1023C0009847044B984710BD1522000025220000B5
:1023D0004D2200007922000070B5054D002205490C
:1023E0002800054CA047022204492800A04770BDE0
:1023F0001C020020E1220000B71D0000751F000034
:1024000010B5044B9847044B9847044B9847044B2E
:10241000984710BDED20000071210000B523000099
:10242000D9230000F0B5DE4657464646C0B582B017
:1024300001904F4B1B78002B00D091E04D490B7859
:102440005A1CD2B20A704C49C95CC8090023002842
:1024500004D14B09DB014948844663441F200840EE
:10246000012181409961464B1E78464B1B78013B08
:1024700098469E426EDA4448815D444B197001369D
:10248000F6B23F4B1E703300855D41480570A9428E
:1024900035D1B04552DB100037498B461F218A46A3
:1024A0000127394CB61A0FE0554629403D008D40B2
:1024B0008561E15C9319DBB20093E05C8446814264
:1024C00012D1100098452CDB421CD2B25946095C4F
:1024D000C809844600206546002DE5D14809C001A1
:1024E000264DAC466044DFE70500284B1970244BAD
:1024F000684600781870264B1D701E4B1A70FF2D11
:102500001ED0019C2000234B9847214B1A780021B4
:102510002000214B984702B01CBC90469A46A34627
:10252000F0BD6546194B1970154B68460078187058
:10253000174B19700F4B1A706146E0E70D00DEE78C
:10254000019C2000134B9847002200212000124BD1
:102550009847E0E70022002101980F4B9847DAE7FF
:102560000022034B1A70002101980B4B9847D2E7C9
:102570000B0000207E020020680200200044004181
:102580008E0200200A00002078020020B400002003
:10259000B3000020351D0000671D0000F0B50022CB
:1025A0000D4B1A70002300260C4D0D4F0D4C0E489C
:1025B00005E0F954C15CE1540133062B06D0E95C17
:1025C000FF29F6D00132D2B20126F2E7002E00D167
:1025D000F0BD014B1A70FBE70A00002070020020DA
:1025E00078020020680200208002002070B50400FC
:1025F0001F4A204B5A61204B1B78002B08D01F4BE1
:102600001B78002B18D11E4B984700221A4B1A70CA
:1026100000231C4A13701C4A13701C4B1A78FF2AA3
:1026200021D10122154B1A70194B10211A68117310
:102630005A7E8A435A7670BD0022104B1A70144D90
:102640002868144B9847144B1B5C1F221A40012327
:102650009340124A13606B7E102213436B762B68F3
:1026600010225A73CFE7002120000D4B9847E2E774
:102670000083030800440041B6000020B50000209C
:102680009D2500008E0200207E020020780200209E
:102690004C020020E11A0000BC36000000E100E01E
:1026A000671D0000002304480449CA5CC25401337A
:1026B000062BFAD17047C046700200208802002025
:1026C000F0B5CE4600B5154B984705239946144FF3
:1026D0003E00144D17E00133DBB21A0063450BDAFC
:1026E000B85C511C7C5CA042F5D9B4547054A85C11
:1026F0006C5CAC546854EEE701235B429C46E144B9
:102700004B46002B06D0CC46002200234946002928
:10271000E6DCF1E704BC9146F0BDC046A52600000A
:10272000700200208002002010B58EB001AA0023A4
:102730000021137093711381002050709172D17237
:102740001173917351731174536193611177136213
:102750005362138553859385C023DB009380042344
:102760009370FF212533D154074C08492000084BB2
:1027700098472268D37B5BB2002BFBDB13880221D6
:102780000B4313800EB010BD4C0200200018004215
:10279000051B000010B5012202490348034B98476E
:1027A00010BDC0460083030800440041052F00000F
:1027B00030B583B001AC012363700022A270237096
:1027C00021000F200B4DA84721001020A847210011
:1027D0001120A84721000820A84721000920A84768
:1027E00021001B20A847044B9847044A044B5A6118
:1027F00003B030BD511F000095270000008303087F
:102800000044004170B5054D002205492800054CE3
:10281000A047022204492800A04770BD4C020020B6
:10282000ED250000B71D000025240000F8B5CE46B8
:10283000474680B5134C2068134B99469847134B75
:1028400098461B5C1F26334001252A009A40104FF2
:102850003A60637E01221343637623685D73180038
:10286000C84743461B5C1E40B5403D60637E102256
:1028700013436376236810225A730CBC9046994622
:10288000F8BDC0464C020020E11A0000BC36000032
:1028900000E100E0064B0F221A7001325A7001323B
:1028A0009A70093ADA7001321A7112325A7170470D
:1028B00080020020064BC8221A700A325A700A326F
:1028C0009A700A32DA700A321A710A325A717047F3
:1028D0008802002010B5054B9847054B9847054BDB
:1028E0009847054B9847054B984710BD9528000021
:1028F000B5280000A5260000C12600009D25000087
:1029000010B5044B9847044B9847044B9847044B29
:10291000984710BD29270000B1270000D5280000E6
:1029200005280000704700000C4B1B68002B06D1E7
:10293000EFF31083002B07D00022094B1A70074ACF
:10294000136801331360704772B6BFF35F8F0022C4
:10295000044B1A700132024B1A70F0E7B8000020E5
:10296000BC0000200C000020084B1A68013A1A60D5
:102970001B68002B09D1064B1B78002B05D00122C8
:10298000044B1A70BFF35F8F62B67047B800002027
:10299000BC0000200C00002010B5082803D88000DF
:1029A0001B4B1B589F46002030E01A4B18692DE046
:1029B000194B1B6A9B059B0F1848D84026E0154B06
:1029C000586923E0134B1B6800209B071ED5124952
:1029D0001022CB681A42FCD00E4B1B685B0701D457
:1029E0000F4813E000200F4B98470A4B9B681B04CD
:1029F0001B0C58430AE05023074AD35C00205B07B6
:102A000004D5044BD86801E08020000210BDC04608
:102A1000C0360000C00000200008004000127A000C
:102A2000006CDC02F92D000070B50C490B6A0478CB
:102A3000857840780122104080014026B34303434B
:102A40002A40D201802083431343032222401202F2
:102A50000348034013430B6270BDC04600080040AA
:102A6000FFFCFFFF082803D88000254B1B589F461A
:102A7000172044E0234A136A02210B43136200200B
:102A80003DE0204A936902210B439361002036E028
:102A90001C4A138A02210B43138200202FE0194A9B
:102AA000938A02210B439382002028E016490B6889
:102AB000022213430B60134B9A8419000E32CB6829
:102AC0001A42FCD0104A91680E4BD96252689A6241
:102AD00000229A8419001032CB681A42FCD00A4BAB
:102AE0001B689BB2074A9384002008E005494422F2
:102AF0008B5C022003438B54002000E000207047D1
:102B0000E436000000080040C000002030B585B069
:102B1000C222D2001A4B9A601A4A53681E218B4374
:102B2000536001236A4613700024174DE0B26946D2
:102B3000A8470134182CF9D103A8002444700125BA
:102B400085700470114B98470620114B9847114B24
:102B50009847114B1C725C729C72DC7201956B463B
:102B60005C7006236A461370147254726946002022
:102B70000A4B984700200A4B984705B030BDC04625
:102B80000008004000400041DD2D0000292A00001F
:102B9000652A0000A52B000000040040C92B00009E
:102BA000812C0000064A936908210B43936101229E
:102BB000044B1A7019000B781342FCD17047C046C1
:102BC00000040040000C004070B5060004000D78C1
:102BD0002D0205434B78002B02D08023DB021D43DE
:102BE0004B7A002B02D080231B031D434868012829
:102BF00010D9431E184234D1022830D902230022B2
:102C000001325B009842FBD8120232431400802349
:102C10005B031D430B7A002B02D080239B031D43D3
:102C2000134A53785BB2002BFBDB124B9847124BD5
:102C30001E700F4A53785BB2002BFBDB0C4B9C6081
:102C40001A0053785BB2002BFBDB094A53688021E2
:102C500049020B401D435560084B984770BD002248
:102C6000D2E70402344380239B021D43D2E7C046CF
:102C7000000C004029290000080C004069290000D0
:102C800010B504000B4A53785BB2002BFBDB0A4BF8
:102C900098470A4B1C70074A53785BB2002BFBDB4A
:102CA000044A516880235B020B435360044B9847EE
:102CB00010BDC046000C004029290000040C004053
:102CC0006929000070B504001A4A53785BB2002BE2
:102CD000FBDB194B9847194B1C70164A53785BB2B3
:102CE000002BFBDB134E7068C004C00E144B9847DA
:102CF0000500124B1C707668F602F60F114B1C7023
:102D00000C4A53785BB2002BFBDB0A4B9C68240215
:102D1000240C0D4B9847002E07D1012C07D9210018
:102D200028000A4B9847050001E00134E5402800DF
:102D300070BDC046000C004029290000040C004072
:102D400099290000080C004069290000D5300000D6
:102D500010B50400064B9847064B1C70064A538872
:102D60008021C9010B435380044B984710BDC046D6
:102D700029290000020C0040000C004069290000D5
:102D800010B504000F4B98470F4B1C700F4A538827
:102D90001B05180F53880E490B40538053880D496B
:102DA0000B40538011008022D2014B881342FCD18A
:102DB00006494A8803020648024013434B80064BEB
:102DC000984710BD29290000020C0040000C00406B
:102DD000FFF0FFFFFFBFFFFF6929000010B50C786F
:102DE00024020443024B9847A4B2024B5C8010BDFE
:102DF000812D0000000C004010B50400064B9847E0
:102E0000064B1C70064B5C882405240F054B984725
:102E10002000054B984710BD29290000020C0040F6
:102E2000000C004069290000C52C000030B5D378A3
:102E3000002B35D11378802B29D01B068024640207
:102E4000234354780225AC4306D19478002C20D13A
:102E50008024A402234341605478013C012C1CD9F6
:102E60000D042D0CA024E4052C431C4384620D0C9E
:102E7000D02424062C431C438462D478002C22D115
:102E80005B031CD59378012B1ED0416117E0002312
:102E9000D7E7C024E4022343DDE70D4C2340DFE7FE
:102EA00041600C04240CA023DB05234383620C0C3B
:102EB000D0231B0623438362D378002B03D153789E
:102EC000013B012B02D930BD8161F8E78160FAE74F
:102ED000FFFFFBFF10B50A00C1090023002904D140
:102EE0004309DB0105498C4663441F24204001212E
:102EF00081401800024B984710BDC0460044004175
:102F00002D2E0000F0B5C64600B500230126402452
:102F1000A046A44609E0C51840352C7867463C43D6
:102F2000E4B22C700133202B0CD00C00DC40264284
:102F3000F8D0012AEFD0C418403425784746BD4365
:102F40002570EFE704BC9046F0BD704710B5054B07
:102F50009847054B9847054B9847054B9847054BB5
:102F6000984710BD0D2B0000252900004B2F0000B5
:102F7000D10D00004B2F0000FEE7000010B5264ADF
:102F8000264B9A4211D01A00254B9A420DD2254A5F
:102F900003339B1A9B0801339B0000221F481E49E4
:102FA0008C58845004329A42FAD11F4A1F4B9A42DD
:102FB0000AD2D3431D495B1803218B4304339B186A
:102FC000002102C29342FCD1194AFF21194B8B43C5
:102FD0009360FD3990235B00174AD150174B9A7BC1
:102FE0002E318A4320210A439A739A7B0C218A430B
:102FF00008210A439A739A7B03218A4302210A43D8
:103000009A730F4A536880210B4353600D4B9847C6
:103010000D4B9847FEE7C04628370000000000200F
:10302000740000200400002074000020C003002071
:1030300000ED00E000000000007000410048004189
:1030400000400041C1330000713000000300064A17
:103050001268002A04D0044A1068C318136070472D
:103060000249014A1160F6E7D8000020C00700209D
:1030700070B50C4B98470C4B98470C4B98470C4B32
:1030800098470C4B98470C4B98470C4B98470C4B68
:1030900098470C4B98470C4B98470C4D0C4CA84745
:1030A000A047FCE74D2F0000490800000124000064
:1030B00001290000BD12000079130000C9120000B0
:1030C0002D280000AD210000E1070000491100009B
:1030D00099050000002243088B4274D303098B42F8
:1030E0005FD3030A8B4244D3030B8B4228D3030CD8
:1030F0008B420DD3FF22090212BA030C8B4202D37A
:103100001212090265D0030B8B4219D300E0090AA1
:10311000C30B8B4201D3CB03C01A5241830B8B42AA
:1031200001D38B03C01A5241430B8B4201D34B0393
:10313000C01A5241030B8B4201D30B03C01A5241F8
:10314000C30A8B4201D3CB02C01A5241830A8B427D
:1031500001D38B02C01A5241430A8B4201D34B0266
:10316000C01A5241030A8B4201D30B02C01A5241CA
:10317000CDD2C3098B4201D3CB01C01A524183097E
:103180008B4201D38B01C01A524143098B4201D3B8
:103190004B01C01A524103098B4201D30B01C01AE3
:1031A0005241C3088B4201D3CB00C01A524183085D
:1031B0008B4201D38B00C01A524143088B4201D38A
:1031C0004B00C01A5241411A00D2014652411046EA
:1031D0007047FFE701B5002000F0F0F802BDC046DF
:1031E0000029F7D076E7704703460B437FD40022CF
:1031F00043088B4274D303098B425FD3030A8B428B
:1032000044D3030B8B4228D3030C8B420DD3FF22F4
:10321000090212BA030C8B4202D31212090265D0C2
:10322000030B8B4219D300E0090AC30B8B4201D375
:10323000CB03C01A5241830B8B4201D38B03C01ABC
:103240005241430B8B4201D34B03C01A5241030B33
:103250008B4201D30B03C01A5241C30A8B4201D3E4
:10326000CB02C01A5241830A8B4201D38B02C01A8F
:103270005241430A8B4201D34B02C01A5241030A06
:103280008B4201D30B02C01A5241CDD2C3098B42EB
:1032900001D3CB01C01A524183098B4201D38B0168
:1032A000C01A524143098B4201D34B01C01A52410B
:1032B00003098B4201D30B01C01A5241C3088B4250
:1032C00001D3CB00C01A524183088B4201D38B003B
:1032D000C01A524143088B4201D34B00C01A5241DD
:1032E000411A00D201465241104670475DE0CA0FB4
:1032F00000D04942031000D34042534000229C4674
:1033000003098B422DD3030A8B4212D3FC2289017D
:1033100012BA030A8B420CD3890192118B4208D353
:10332000890192118B4204D389013AD0921100E0B5
:103330008909C3098B4201D3CB01C01A52418309C9
:103340008B4201D38B01C01A524143098B4201D3F6
:103350004B01C01A524103098B4201D30B01C01A21
:103360005241C3088B4201D3CB00C01A524183089B
:103370008B4201D38B00C01A5241D9D243088B42F1
:1033800001D34B00C01A5241411A00D20146634694
:1033900052415B10104601D34042002B00D54942F8
:1033A000704763465B1000D3404201B5002000F037
:1033B00005F802BD0029F8D016E770477047C046EF
:1033C00070B500260C4D0D4C641BA410A64209D10B
:1033D000002600F099F90A4D0A4C641BA410A6427D
:1033E00005D170BDB300EB5898470136EEE7B30046
:1033F000EB5898470136F2E7143700001437000005
:10340000143700001837000010B5034B010018688E
:1034100000F016F810BDC04610000020002310B5C3
:103420009A4200D110BDCC5CC4540133F8E70300CC
:103430008218934200D1704719700133F9E70000F8
:10344000032370B5CD1C9D43083506000C2D1ED2FC
:103450000C25A9421DD8300000F062F8254A1468F6
:103460002100002919D1244C2368002B03D13000FE
:1034700000F044F820602900300000F03FF8431CC1
:103480002CD10C233000336000F04BF803E0002D0A
:10349000DFDA0C233360002070BD0B685B1B1AD48D
:1034A0000B2B03D90B60CC18256003E08C420ED1A6
:1034B00063681360300000F034F8200007220B30FE
:1034C000231D9043C31AE7D05A42E250E4E74B6809
:1034D00063600C00EEE70C004968C2E70323C41CDC
:1034E0009C43A042E0D0211A300000F007F8431CB2
:1034F000DAD1C6E7E0000020E4000020002370B528
:10350000064C050008002360FFF7A0FD431C03D113
:103510002368002B00D02B6070BDC046BC03002088
:1035200070477047FC0500000A060000CE05000049
:10353000CE050000180600002E060000440600001C
:1035400052060000600600006E0600007C060000C7
:10355000BC0600009A0A0000E60C0000E60C000021
:10356000E60C0000E60C0000E60C0000E60C000093
:10357000E60C0000E60C0000E60C0000E60C000083
:10358000E60C0000E60C0000E60C0000E60C000073
:10359000E60C0000820A0000E60C0000E60C0000C9
:1035A000E60C0000E60C0000E60C0000E60C000053
:1035B000E60C0000E60C0000E60C0000E60C000043
:1035C000E60C0000E60C0000E60C0000E60C000033
:1035D000E60C0000920A0000E60C0000E60C000079
:1035E000E60C0000E60C0000E60C0000E60C000013
:1035F000E60C0000E60C0000E60C0000E60C000003
:10360000E60C0000E60C0000E60C0000E60C0000F2
:10361000E60C00008A0A0000A20A00006A0A000004
:103620007A0A0000720A0000020000000300000095
:103630000400000005000000060000000700000074
:103640000E0000000F0000000A0000000B00000048
:10365000FFFF0000FFFF0000FFFF0000FFFF000072
:10366000FFFF0000FFFF0000FFFF0000FFFF000062
:10367000FFFF0000FFFF000000080042000C0042B6
:1036800000100042060908000100000002000000CE
:1036900004000000080000000010000000200000EE
:1036A0000040000000800000000001000000020057
:1036B00000000400000008000D0E00000D0E0000C8
:1036C000AA290000A6290000A6290000082A000057
:1036D000082A0000BE290000B0290000C42900000B
:1036E000F6290000902A0000702A0000702A0000CD
:1036F000FC2A0000822A00009E2A0000742A000092
:10370000AC2A0000EC2A0000F8B5C046F8BC08BCA2
:103710009E467047B5000000F8B5C046F8BC08BC2E
:083720009E4670478D00000079
:10372800401F00000800000002010601010000001F
:10373800140000200000000000000000000000004D
:103748000000000000000000000000000000000071
:103758000000000000000000000000000000000061
:103768000000000000000000000000000000000051
:103778000000000000000000000000000000000041
:103788000000000000000000000000000000000031
:04379800000000002D
:0400000300002F7D4D
:00000001FF
